:100000000C9434000C9449000C9449000C94490061
:100010000C9449000C9449000C9449000C9449003C
:100020000C9449000C9449000C9449000C9449002C
:100030000C9449000C9449000C9449000C9449001C
:100040000C9449000C9449000C9449000C9449000C
:100050000C9449000C9449000C9449000C944900FC
:100060000C9449000C94490011241FBECFEFD8E036
:10007000DEBFCDBF11E0A0E0B1E0EAEEFEE002C0DD
:1000800005900D92A438B107D9F70E9486050C940B
:1000900073070C940000089580917C008064809325
:1000A0007C0080917C00807F80937C0080917A002E
:1000B000876080937A0080917A00806880937A00CC
:1000C00080917A00806480937A0080917A0086FD26
:1000D000FCCF08956770FC0160830C944C00209164
:1000E0007C00207F20937C0020917C00FC0180819B
:1000F000282B20937C0080917A00806480937A0082
:1001000080917A0086FDFCCF8091780090917900F3
:100110000895FC0110821182128263831092B9004B
:100120008CE08093B800089508951092B9008CE097
:100130008093B8000895FC01108211821092BC00D7
:1001400084EA8093BC008091BC0087FFFCCF809143
:10015000B900887F883011F481E0808383818093A7
:10016000BB0084E88093BC008091BC0087FFFCCF7B
:100170008091B900887F883111F481E081830895EE
:1001800084E98093BC000895FC0112826093BB0057
:1001900024E82093BC002091BC0027FFFCCF2091D5
:1001A000B900287F283219F421E0FC012283089548
:1001B0000F931F93CF93DF931F92CDB7DEB78C01C0
:1001C00069830E949B006981C8010E94C40084E980
:1001D0008093BC000F90DF91CF911F910F910895F4
:1001E000FC0180810895FC0181810895FC018281D8
:1001F0000895FC0171836083128213821482089532
:10020000089568E0FC01808191810C94D80060E041
:10021000FC01808191810C94D8001F93CF93DF93D0
:10022000EC01162F6460888199810E94D8008FE1CB
:100230009EE40197F1F700C00000612F6B7F888179
:1002400099810E94D8008FE99FE00197F1F700C0E3
:100250000000DF91CF911F9108951F93CF93DF93FB
:10026000EC01162F6D7F6860888199810E94D8000B
:10027000612F6860CE01DF91CF911F910C940D0129
:10028000EF92FF921F93CF93DF931F92CDB7DEB70C
:100290007C01162F607F642B49830E942D0180E131
:1002A000189FB00111244981642BC7010F90DF9181
:1002B000CF911F91FF90EF900C942D0140E00E9490
:1002C00040018FE19EE40197F1F700C0000008951E
:1002D00061E00E945E012FEF8FE193E021508040AA
:1002E0009040E1F700C00000089562E00E945E01C6
:1002F0002FEF8FE193E0215080409040E1F700C064
:1003000000000895CF93DF93EC016FE00E945E013F
:100310006CE0CE010E945E012FEF89EF90E021504A
:1003200080409040E1F700C00000DF91CF91089538
:1003300068E00E945E012FEF89EF90E0215080403D
:100340009040E1F700C000000895CF93DF93EC01E7
:100350006FE00E945E012FEF83EC99E02150804016
:100360009040E1F700C000006EE0CE010E945E0107
:100370002FEF89EF90E0215080409040E1F700C0DE
:100380000000DF91CF910895CF93DF93EC016DE0F2
:100390000E945E012FEF83EC99E021508040904055
:1003A000E1F700C000006CE0CE010E945E012FEF7B
:1003B00089EF90E0215080409040E1F700C00000BC
:1003C000DF91CF910895CF93DF93EC016DE00E9410
:1003D0005E012FEF83EC99E0215080409040E1F7DF
:1003E00000C000006DE0CE010E945E012FEF89EF9A
:1003F00090E0215080409040E1F700C00000DF9184
:10040000CF910895CF93DF93EC016EE00E945E01DF
:100410002FEF83EC99E0215080409040E1F700C03D
:10042000000068E0888199810E94D8006CE0CE01CC
:100430000E945E012FEF89EF90E0215080409040B4
:10044000E1F700C00000DF91CF910895CF93DF93D3
:10045000EC012FEF87EA91E6215080409040E1F7D0
:1004600000C0000064E0888199810E94D8008FE379
:100470009CE90197F1F700C0000068E3CE010E94FB
:100480002D019FE722E382E0915020408040E1F778
:1004900000C0000068E3CE010E942D019FE722E327
:1004A00082E0915020408040E1F700C0000068E306
:1004B000CE010E942D019FEF20E782E09150204065
:1004C0008040E1F700C0000068E2CE010E942D01EB
:1004D0008FE59AEE0197F1F700C0000068E2CE01C7
:1004E0000E945E0195ED9A95F1F700006FE0CE0154
:1004F0000E945E0125ED2A95F1F7000066E0CE012D
:100500000E945E0185ED8A95F1F7000061E0CE0161
:100510000E945E019FEF2FE183E0915020408040D8
:10052000E1F700C00000DF91CF9108950C942602FE
:100530000C94260241E00C9440010F931F93CF933B
:10054000DF938C01EB016991662321F0C8010E94C1
:100550009A02F9CFDF91CF911F910F910895423008
:1005600059F018F4413031F00895433039F04430F7
:1005700039F00895605805C0605403C0605701C049
:1005800060530C945E010F931F93CF93DF93EC01A4
:1005900089010E94AF02B801CE01DF91CF911F9176
:1005A0000F910C949D02EF92FF920F931F93CF93A4
:1005B000DF9300D000D01F92CDB7DEB78C01790158
:1005C0000E94AF024AE050E0BE016F5F7F4FC7015B
:1005D0000E944207BE016F5F7F4FC8010E949D02CB
:1005E0000F900F900F900F900F90DF91CF911F9170
:1005F0000F91FF90EF9008950F931F93CF93DF9388
:1006000000D000D01F92CDB7DEB78C01CB014AE0FD
:1006100050E0BE016F5F7F4F0E944207BE016F5FD7
:100620007F4FC8010E949D020F900F900F900F9076
:100630000F90DF91CF911F910F910895DC011296D9
:10064000ED91FC9113973297808121E030E0149670
:100650000C9002C0220F331F0A94E2F78223089500
:10066000DC011296ED91FC911397408121E030E07E
:1006700014960C9002C0220F331F0A94E2F742270F
:1006800040830895DC011296ED91FC9113974291FD
:1006900021E030E014960C9002C0220F331F0A9420
:1006A000E2F7422740830895DC011296ED91FC9118
:1006B000139714963C91208181E090E0032E01C0B5
:1006C000880F0A94EAF7662319F0282B20830895EF
:1006D0008095822380830895FC0170E0928183815C
:1006E0002481E92FF82F6130710559F0329181E0B2
:1006F00090E0022E01C0880F0A94EAF780958323C8
:1007000007C08291022E01C0660F0A94EAF7862B79
:1007100080830895FFCFFC0189E791E09183808376
:10072000628373834483368325832115310521F049
:100730002130310569F00895FB01229181E090E0BC
:10074000042E01C0880F0A94EAF78095822308C01E
:10075000FB018291042E01C0220F0A94EAF7822B3A
:100760008083089529E731E0FC01318320830895D7
:100770000895EF92FF920F931F93CF93DF93EC01B5
:10078000E62E8D859E85DC01ED91FC910084F1853E
:10079000E02D61E009958B859C85DC01ED91FC9154
:1007A0000190F081E02D61E009958FE39CE90197CC
:1007B000F1F700C0000000E010E0F12C8F8598896F
:1007C000DC01ED91FC910190F081E02D60E0099554
:1007D0008D859E859701002E02C0359527950A9438
:1007E000E2F7DC01ED91FC910190F081E02D20FF1A
:1007F00002C061E001C060E009958F859889DC0145
:10080000ED91FC910190F081E02D61E009950F5F81
:100810001F4F0830110591F6DF91CF911F910F9175
:10082000FF90EF900895EF92FF920F931F93CF9355
:10083000DF93EC01E62E8F859889DC01ED91FC9128
:100840000190F081E02D60E0099500E010E0F12CCE
:100850008D859E859701002E02C0359527950A94B7
:10086000E2F7DC01ED91FC910190F081E02D20FF99
:1008700002C061E001C060E009958F859889DC01C4
:10088000ED91FC910190F081E02D61E009958F855B
:100890009889DC01ED91FC910190F081E02D60E000
:1008A00009950F5F1F4F0830110591F68B859C85C8
:1008B000DC01ED91FC910190F081E02D60E0DF9191
:1008C000CF911F910F91FF90EF9009941F93CF93B9
:1008D000DF93EC01162F642F660F60680E94B90346
:1008E000812F90E06AE070E00E942E076295607FA1
:1008F000682BCE01DF91CF911F910C941304FC0162
:100900007487638756874587308B278747E050E099
:1009100060E00C946604AF92BF92CF92EF920F9377
:100920001F93CF93DF931F92CDB7DEB75C01142FD7
:10093000605D46E050E029830E94660443E050E099
:100940002981622FC5010E94660444E050E0612FB6
:10095000C5010E94660442E050E0602FC5010E947C
:10096000660441E050E06E2DC5010E94660440E03F
:1009700050E06C2DC5010F90DF91CF911F910F9129
:10098000EF90CF90BF90AF900C946604DF92EF92FF
:10099000FF920F931F93CF93DF93EC018D859E857C
:1009A000DC01ED91FC910084F185E02D60E009957A
:1009B0008D859E85DC01ED91FC910190F081E02D0B
:1009C00060E009958F859889DC01ED91FC9101909B
:1009D000F081E02D60E00995BFEF20E782E0B150A3
:1009E00020408040E1F700C0000000E010E0D12C82
:1009F000EE24E394F12C4B9B07C0C701002E01C0ED
:100A0000880F0A94EAF7D82A8F859889DC01ED913E
:100A1000FC910190F081E02D61E009958F85988926
:100A2000DC01ED91FC910190F081E02D60E00995F1
:100A30000F5F1F4F08301105F1F68B859C85DC0197
:100A4000ED91FC910190F081E02D60E009958D2DF4
:100A5000DF91CF911F910F91FF90EF90DF9008955C
:100A60009B01207F332794E0369527959A95E1F7EF
:100A7000862F8F709AE0299F800D11240895CF93BF
:100A8000DF93EC01660F61680E94B903CE010E94FA
:100A9000C604682F70E0CE01DF91CF910C94300531
:100AA000CF93DF93EC0166E070E00E943F0590E099
:100AB0008053984F98878F8363E070E0CE010E9447
:100AC0003F058B8364E070E0CE010E943F058C837C
:100AD00062E070E0CE010E943F058A8361E070E031
:100AE000CE010E943F05898360E070E0CE010E9444
:100AF0003F058883DF91CF910895CB016AE070E0D4
:100B00000E942E076295607F862B0895CF93DF9316
:100B1000CDB7DEB7C654D1090FB6F894DEBF0FBE0D
:100B2000CDBF6EE4CE018F5B9F4F0E948900BE0156
:100B30006F5B7F4FCE01CC960E94F90021E030E040
:100B400044E065E270E0CE01C5960E948B0321E08F
:100B500030E043E065E270E0CE018E960E948B03A8
:100B600021E030E042E065E270E0CE0187960E942D
:100B70008B0321E030E042E06BE270E0CE01809632
:100B80000E948B0321E030E043E06BE270E0CE0195
:100B900049960E948B0321E030E044E06BE270E074
:100BA000CE0142960E948B039E012E5E3F4FAE0106
:100BB000475E5F4FBE01605E7F4FCE0101960E948F
:100BC0007F044EE1C42E5EE0E52E0EE02BE049E10D
:100BD00061EE77E0CE0101960E948B0460E0CE01C9
:100BE0008A5B9F4F0E946A0062E0CE018B5B9F4F41
:100BF0000E946A00CE01CC960E949802CE01CC964B
:100C00000E94680141E061E0CE01CC960E94AF02F3
:100C100060E071E0CE01CC960E949D0242E065E06A
:100C2000CE01CC960E94AF026FE071E0CE01CC966F
:100C30000E949D022FEF8BE792E921508040904067
:100C4000E1F700C000008E01045C1F4FB02EA12E02
:100C5000CE0101960E945005C8010E94680126E15C
:100C600031E041E062E0C8010E94C30242E063E07B
:100C7000C8010E94AF0268857985C8010E94FC0204
:100C800063E271E0C8010E949D026D816A3030F418
:100C900065E271E0C8010E949D026D8170E0C801AB
:100CA0000E94FC0263E271E0C8010E949D026C8117
:100CB0006A3030F465E271E0C8010E949D026C81E7
:100CC00070E0C8010E94FC022FEF83ED90E32150F9
:100CD00080409040E1F700C00000CE0101960E94E4
:100CE0005005C8010E94680127E231E041E062E05E
:100CF000C8010E94C30242E064E0C8010E94AF0242
:100D00006B816A3030F465E271E0C8010E949D0297
:100D10006B8170E0C8010E94FC0264E371E0C801CD
:100D20000E949D026A816A3030F465E271E0C80178
:100D30000E949D026A8170E0C8010E94FC0264E387
:100D400071E0C8010E949D0269816A3030F465E259
:100D500071E0C8010E949D02698170E0C8010E9493
:100D6000FC022FEF83ED90E3215080409040E1F7AB
:100D700000C000008A81882339F08F3029F08E313D
:100D800019F08D3209F064CFC8010E94680166E352
:100D900071E0C8010E949D022CE331E042E060E076
:100DA000C8010E94C3022FEF89E698E121508040DC
:100DB0009040E1F700C000008B2D9A2D0E94680141
:100DC0006BE471E08B2D9A2D0E949D0261E0CE01B3
:100DD0008E960E94540334E0932EC12CD12C7601C0
:100DE000CE018A5B9F4F0E946F00C80ED91EE11C86
:100DF000F11C2FEF83ED90E3215080409040E1F70C
:100E000000C000009A9461F760E0CE018E960E94C7
:100E10005403C8010E9468012AE531E041E062E024
:100E2000C8010E94C30242E067E0C8010E94AF020D
:100E3000C701B60122E096958795779567952A9523
:100E4000D1F7C8010E94FC022FEF83ED90E32150FF
:100E500080409040E1F700C00000FACEAA1BBB1B07
:100E600051E107C0AA1FBB1FA617B70710F0A61BAA
:100E7000B70B881F991F5A95A9F780959095BC01CB
:100E8000CD010895FB019F01E8944230C4F0453242
:100E9000B4F44A3029F497FB1EF4909581959F4F46
:100EA000642F77270E942E07805D8A330CF0895DBE
:100EB0008193CB010097A1F716F45DE25193108264
:100EC000C9010C946307DC01FC01672F7191772342
:100ED000E1F7329704C07C916D9370836291AE17F5
:0A0EE000BF07C8F30895F894FFCF90
:100EEA0069727269676174696F6E20626F740076E5
:100EFA0065722E30310063757272656E742064619A
:100F0A007465002F00300063757272656E74207408
:100F1A00696D65003A007374617274006D6561737E
:100F2A007572656D656E742E2E2E00726561646928
:100F3A006E672053656E736F720053656E736F72BE
:100F4A002076616C756500000000008A038A038AB6
:100F5A00038A038A030000000054031E033003427D
:040F6A00036C030011
:00000001FF
