:100000000C9434000C9449000C9449000C94490061
:100010000C9449000C9449000C9449000C9449003C
:100020000C9449000C9449000C9449000C9449002C
:100030000C9449000C9449000C9449000C9449001C
:100040000C9449000C9449000C9449000C9449000C
:100050000C9449000C9449000C9449000C944900FC
:100060000C9449000C94490011241FBECFEFD8E036
:10007000DEBFCDBF11E0A0E0B1E0E6EDFFE002C0E1
:1000800005900D92A638B107D9F70E9484050C940B
:10009000E9070C940000089580917C0080648093AF
:1000A0007C0080917C00807F80937C0080917A002E
:1000B000876080937A0080917A00806880937A00CC
:1000C00080917A00806480937A0080917A0086FD26
:1000D000FCCF08956770FC0160830C944C00209164
:1000E0007C00207F20937C0020917C00FC0180819B
:1000F000282B20937C0080917A00806480937A0082
:1001000080917A0086FDFCCF8091780090917900F3
:100110000895FC0110821182128263831092B9004B
:100120008CE08093B800089508951092B9008CE097
:100130008093B8000895FC01108211821092BC00D7
:1001400084EA8093BC008091BC0087FFFCCF809143
:10015000B900887F883011F481E0808383818093A7
:10016000BB0084E88093BC008091BC0087FFFCCF7B
:100170008091B900887F883111F481E081830895EE
:1001800084E98093BC000895FC0112826093BB0057
:1001900024E82093BC002091BC0027FFFCCF2091D5
:1001A000B900287F283219F421E0FC012283089548
:1001B0000F931F93CF93DF931F92CDB7DEB78C01C0
:1001C00069830E949B006981C8010E94C40084E980
:1001D0008093BC000F90DF91CF911F910F910895F4
:1001E000FC0180810895FC0181810895FC018281D8
:1001F0000895FC0171836083128213821482089532
:10020000089568E0FC01808191810C94D80060E041
:10021000FC01808191810C94D8001F93CF93DF93D0
:10022000EC01162F6460888199810E94D8008FE1CB
:100230009EE40197F1F700C00000612F6B7F888179
:1002400099810E94D8008FE99FE00197F1F700C0E3
:100250000000DF91CF911F9108951F93CF93DF93FB
:10026000EC01162F6D7F888199810E94D800612F43
:10027000CE01DF91CF911F910C940D01EF92FF926F
:100280001F93CF93DF931F92CDB7DEB77C01162F5C
:10029000607F642B49830E942D0180E1189FB0018B
:1002A00011244981642BC7010F90DF91CF911F91D9
:1002B000FF90EF900C942D0140E00E943E018FE1F1
:1002C0009EE40197F1F700C00000089561E00E94EC
:1002D0005C012FEF8FE193E0215080409040E1F7E7
:1002E00000C00000089562E00E945C012FEF8FE1E2
:1002F00093E0215080409040E1F700C00000089555
:10030000CF93DF93EC016FE00E945C016CE0CE01C3
:100310000E945C012FEF89EF90E0215080409040D7
:10032000E1F700C00000DF91CF91089568E00E94DE
:100330005C012FEF89EF90E0215080409040E1F781
:1003400000C000000895CF93DF93EC016FE00E949E
:100350005C012FEF83EC99E0215080409040E1F761
:1003600000C000006EE0CE010E945C012FEF89EF1B
:1003700090E0215080409040E1F700C00000DF9104
:10038000CF910895CF93DF93EC016DE00E945C0163
:100390002FEF83EC99E0215080409040E1F700C0BE
:1003A00000006CE0CE010E945C012FEF89EF90E02D
:1003B000215080409040E1F700C00000DF91CF91D4
:1003C0000895CF93DF93EC016DE00E945C012FEF65
:1003D00083EC99E0215080409040E1F700C000009C
:1003E0006DE0CE010E945C012FEF89EF90E021507B
:1003F00080409040E1F700C00000DF91CF91089568
:10040000CF93DF93EC016EE00E945C012FEF83EC51
:1004100099E0215080409040E1F700C0000068E082
:10042000888199810E94D8006CE0CE010E945C0115
:100430002FEF89EF90E0215080409040E1F700C01D
:100440000000DF91CF910895CF93DF93EC012FEF60
:1004500087EA91E6215080409040E1F700C000001B
:1004600064E0888199810E94D8008FE39CE901971C
:10047000F1F700C0000068E3CE010E942D019FE764
:1004800022E382E0915020408040E1F700C000006C
:1004900068E3CE010E942D019FE722E382E09150A4
:1004A00020408040E1F700C0000068E3CE010E94D8
:1004B0002D019FEF20E782E0915020408040E1F73E
:1004C00000C0000068E2CE010E942D018FE59AEE87
:1004D0000197F1F700C0000068E2CE010E945C01C4
:1004E00095ED9A95F1F700006FE0CE010E945C0156
:1004F00025ED2A95F1F7000066E0CE010E945C012F
:1005000085ED8A95F1F7000061E0CE010E945C0163
:100510009FEF2FE183E0915020408040E1F700C041
:100520000000DF91CF9108950C9424020C942402D2
:1005300041E00C943E010F931F93CF93DF938C0106
:10054000EB016991662321F0C8010E949802F9CF5E
:10055000DF91CF911F910F910895423059F018F417
:10056000413031F00895433039F0443039F0089586
:10057000605805C0605403C06C5601C06C520C94A6
:100580005C010F931F93CF93DF93EC0189010E94CD
:10059000AD02B801CE01DF91CF911F910F910C9464
:1005A0009B02EF92FF920F931F93CF93DF9300D0A4
:1005B00000D01F92CDB7DEB78C0179010E94AD0249
:1005C0004AE050E0BE016F5F7F4FC7010E94B8074D
:1005D000BE016F5F7F4FC8010E949B020F900F907A
:1005E0000F900F900F90DF91CF911F910F91FF907F
:1005F000EF9008950F931F93CF93DF9300D000D017
:100600001F92CDB7DEB78C01CB014AE050E0BE01AE
:100610006F5F7F4F0E94B807BE016F5F7F4FC801B9
:100620000E949B020F900F900F900F900F90DF9100
:10063000CF911F910F910895DC011296ED91FC91DD
:1006400013973297808121E030E014960C9002C01D
:10065000220F331F0A94E2F782230895DC011296D9
:10066000ED91FC911397408121E030E014960C90BD
:1006700002C0220F331F0A94E2F7422740830895F5
:10068000DC011296ED91FC911397429121E030E04C
:1006900014960C9002C0220F331F0A94E2F74227EF
:1006A00040830895DC011296ED91FC911397149606
:1006B0003C91208181E090E0032E01C0880F0A94D4
:1006C000EAF7662319F0282B20830895809582236A
:1006D00080830895FC0170E0928183812481E92F59
:1006E000F82F6130710559F0329181E090E0022ECF
:1006F00001C0880F0A94EAF78095832307C082918E
:10070000022E01C0660F0A94EAF7862B80830895B3
:10071000FFCFFC018CE791E0918380836283738338
:100720004483368325832115310521F0213031059D
:1007300069F00895FB01229181E090E0042E01C050
:10074000880F0A94EAF78095822308C0FB01829102
:10075000042E01C0220F0A94EAF7822B80830895A9
:100760002CE731E0FC013183208308950895EF9256
:10077000FF920F931F93CF93DF93EC01E62E8D85AD
:100780009E85DC01ED91FC910084F185E02D61E016
:1007900009958B859C85DC01ED91FC910190F081A0
:1007A000E02D61E009958FE39CE90197F1F700C026
:1007B000000000E010E0F12C8F859889DC01ED91BC
:1007C000FC910190F081E02D60E009958D859E857A
:1007D0009701002E02C0359527950A94E2F7DC01B7
:1007E000ED91FC910190F081E02D20FF02C061E0CD
:1007F00001C060E009958F859889DC01ED91FC913D
:100800000190F081E02D61E009950F5F1F4F0830E6
:10081000110591F6DF91CF911F910F91FF90EF900D
:100820000895EF92FF920F931F93CF93DF93EC0104
:10083000E62E8F859889DC01ED91FC910190F08185
:10084000E02D60E0099500E010E0F12C8D859E859B
:100850009701002E02C0359527950A94E2F7DC0136
:10086000ED91FC910190F081E02D20FF02C061E04C
:1008700001C060E009958F859889DC01ED91FC91BC
:100880000190F081E02D61E009958F859889DC0168
:10089000ED91FC910190F081E02D60E009950F5FF2
:1008A0001F4F0830110591F68B859C85DC01ED9179
:1008B000FC910190F081E02D60E0DF91CF911F91DC
:1008C0000F91FF90EF9009941F93CF93DF93EC016A
:1008D000162F642F660F60680E94B703812F90E087
:1008E0006AE070E00E9482076295607F682BCE010B
:1008F000DF91CF911F910C941104FC0174876387E1
:1009000056874587308B278747E050E060E00C949E
:100910006404AF92BF92CF92EF920F931F93CF9345
:10092000DF931F92CDB7DEB75C01142F605D46E008
:1009300050E029830E94640443E050E02981622F43
:10094000C5010E94640444E050E0612FC5010E948B
:10095000640442E050E0602FC5010E94640441E05D
:1009600050E06E2DC5010E94640440E050E06C2D03
:10097000C5010F90DF91CF911F910F91EF90CF9014
:10098000BF90AF900C946404DF92EF92FF920F93AC
:100990001F93CF93DF93EC018D859E85DC01ED9154
:1009A000FC910084F185E02D60E009958D859E85A0
:1009B000DC01ED91FC910190F081E02D60E0099562
:1009C0008F859889DC01ED91FC910190F081E02DFB
:1009D00060E00995BFEF20E782E0B1502040804001
:1009E000E1F700C0000000E010E0D12CEE24E39419
:1009F000F12C4B9B07C0C701002E01C0880F0A9441
:100A0000EAF7D82A8F859889DC01ED91FC91019055
:100A1000F081E02D61E009958F859889DC01ED91E9
:100A2000FC910190F081E02D60E009950F5F1F4F70
:100A300008301105F1F68B859C85DC01ED91FC9168
:100A40000190F081E02D60E009958D2DDF91CF912F
:100A50001F910F91FF90EF90DF9008959B01207FF1
:100A6000332794E0369527959A95E1F7862F8F7076
:100A70009AE0299F800D11240895CF93DF93EC0114
:100A8000660F61680E94B703CE010E94C404682FFC
:100A900070E0CE01DF91CF910C942E05CF93DF93C0
:100AA000EC0166E070E00E943D0590E08053984FB5
:100AB00098878F8363E070E0CE010E943D058B83B1
:100AC00064E070E0CE010E943D058C8362E070E03E
:100AD000CE010E943D058A8361E070E0CE010E9454
:100AE0003D05898360E070E0CE010E943D0588836A
:100AF000DF91CF910895CB016AE070E00E948207F8
:100B00006295607F862B0895CF93DF93CDB7DEB7D4
:100B1000C654D1090FB6F894DEBF0FBECDBF6EE448
:100B2000CE018F5B9F4F0E948900BE016F5B7F4F9C
:100B3000CE01CC960E94F90021E030E044E065E26D
:100B400070E0CE01C5960E94890321E030E043E0C9
:100B500065E270E0CE018E960E94890321E030E0CC
:100B600042E065E270E0CE0187960E94890321E0B1
:100B700030E042E06BE270E0CE0180960E94890393
:100B800021E030E043E06BE270E0CE0149960E9444
:100B9000890321E030E044E06BE270E0CE01429650
:100BA0000E9489039E012E5E3F4FAE01475E5F4F5C
:100BB000BE01605E7F4FCE0101960E947D044DE232
:100BC000C42E5EE0E52E0EE02BE049E161EE77E019
:100BD000CE0101960E94890460E0CE018A5B9F4F9E
:100BE0000E946A0062E0CE018B5B9F4F0E946A0008
:100BF000CE01CC960E949602CE01CC960E94660150
:100C000041E063E0CE01CC960E94AD0260E071E06D
:100C1000CE01CC960E949B0242E067E0CE01CC96CA
:100C20000E94AD026FE071E0CE01CC960E949B0263
:100C30002FEF8BE792E9215080409040E1F700C010
:100C400000008E01045C1F4FC8010E946601702ED7
:100C5000612E6CE3862E912CA12CB12CCE01019635
:100C60000E944E0542E065E0C8010E94AD02688521
:100C70007985C8010E94FA0266E171E0C8010E940C
:100C80009B026D816A3030F468E171E0C8010E9416
:100C90009B026D8170E0C8010E94FA0266E171E07A
:100CA000C8010E949B026C816A3030F468E171E0F7
:100CB000C8010E949B026C8170E0C8010E94FA0288
:100CC00044E066E0C8010E94AD026B816A3030F4F6
:100CD00068E171E0C8010E949B026B8170E0C8016D
:100CE0000E94FA026AE171E0C8010E949B026A81D7
:100CF0006A3030F468E171E0C8010E949B026A81A9
:100D000070E0C8010E94FA026AE171E0C8010E9425
:100D10009B0269816A3030F468E171E0C8010E9489
:100D20009B02698170E0C8010E94FA028A818823CF
:100D300039F08F3029F08E3119F08D3209F08ECFD5
:100D4000C8010E946601CE018B5B9F4F0E946F001D
:100D50006C01E12CF12C6CE171E0C8010E949B0256
:100D600042E060E0C8010E94AD02C701B60122E086
:100D700096958795779567952A95D1F7C8010E9432
:100D8000FA026FEDC8010E9498022FEF87EA91E600
:100D9000215080409040E1F700C00000872D962D43
:100DA0000E94660168E271E0872D962D0E949B02E9
:100DB0002EE231E042E060E0872D962D0E94C102D4
:100DC0002FEF83ED90E3215080409040E1F700C089
:100DD000000061E0CE018E960E9452033CE3532E48
:100DE000C12CD12C7601CE018A5B9F4F0E946F00EF
:100DF000C80ED91EE11CF11C2FEF83ED90E32150AA
:100E000080409040E1F700C000005A9461F7C701AC
:100E1000B601A50194010E94960769017A0160E07C
:100E2000CE018E960E945203C8010E9466012DE3F6
:100E300031E041E062E0C8010E94C10242E067E0A7
:100E4000C8010E94AD02B601C8010E94FA022FEF4C
:100E500083ED90E3215080409040E1F700C0000016
:100E6000872D962D0E94660183E1C816D104E10406
:100E7000F10408F0F3CE68E271E0C8010E949B0221
:100E80002AE431E042E060E0C8010E94C1022FEF95
:100E900087EA91E6215080409040E1F700C00000D1
:100EA00061E0CE01C5960E945203C8010E9466010E
:100EB00068E571E0C8010E949B0223E631E042E050
:100EC00060E0C8010E94C1022FEF83ED90E3215042
:100ED00080409040E1F700C00000CE018A5B9F4F48
:100EE0000E946F006C01E12CF12C26E1C216D104A6
:100EF000E104F104D0F260E0CE01C5960E945203F5
:100F0000C801B0CFAA1BBB1B51E107C0AA1FBB1F62
:100F1000A617B70710F0A61BB70B881F991F5A9585
:100F2000A9F780959095BC01CD010895A1E21A2EF4
:100F3000AA1BBB1BFD010DC0AA1FBB1FEE1FFF1F7D
:100F4000A217B307E407F50720F0A21BB30BE40BCD
:100F5000F50B661F771F881F991F1A9469F7609514
:100F60007095809590959B01AC01BD01CF010895CE
:100F7000FB019F01E8944230C4F04532B4F44A309A
:100F800029F497FB1EF4909581959F4F642F772746
:100F90000E948207805D8A330CF0895D8193CB01CA
:100FA0000097A1F716F45DE251931082C9010C94E9
:100FB000D907DC01FC01672F71917723E1F73297A4
:100FC00004C07C916D9370836291AE17BF07C8F324
:060FD0000895F894FFCF24
:100FD60069727269676174696F6E20626F740076F8
:100FE60065722E3031002F0030003A0054656D7066
:100FF60065726174757265007374617274006D65F3
:1010060061737572656D656E742E2E2E0053656E56
:10101600736F722076616C756500697272696761BB
:1010260074696F6E2E2E2E0069727269676174691B
:101036006F6E006E656564656400000000008803DD
:1010460088038803880388030000000052031C03FA
:061056002E0340036A03B3
:00000001FF
