:100000000C9434000C9449000C9449000C94490061
:100010000C9449000C9449000C9449000C9449003C
:100020000C9449000C9449000C9449000C9449002C
:100030000C9449000C9449000C9449000C9449001C
:100040000C9449000C9449000C9449000C9449000C
:100050000C9449000C9449000C9449000C944900FC
:100060000C9449000C94490011241FBECFEFD8E036
:10007000DEBFCDBF11E0A0E0B1E0EEEAF0E102C0EA
:1000800005900D92A638B107D9F70E9402060C948C
:1000900055080C9400000F931F93CF93DF93EC014E
:1000A0008B0140E060E00E942E03F80167817085BB
:1000B000CE010E94780360E071E0CE010E941C0333
:1000C000F80164816A3038F462E071E0CE010E9488
:1000D0001C03F801648170E0CE010E94780360E0A7
:1000E00071E0CE010E941C03F80163816A3038F48C
:1000F00062E071E0CE010E941C03F801638170E0B0
:10010000CE01DF91CF911F910F910C9478030F9343
:100110001F93CF93DF93EC018B0140E06CE00E94D2
:100120002E03F80162816A3038F462E071E0CE019A
:100130000E941C03F801628170E0CE010E947803E6
:1001400066E271E0CE010E941C03F80161816A3011
:1001500038F462E071E0CE010E941C03F801618175
:1001600070E0CE010E94780366E271E0CE010E9449
:100170001C03F80160816A3038F462E071E0CE015E
:100180000E941C03F801608170E0CE01DF91CF91E5
:100190001F910F910C947803089580917C008064E6
:1001A00080937C0080917C00807F80937C00809194
:1001B0007A00876080937A0080917A0080688093CB
:1001C0007A0080917A00806480937A0080917A002E
:1001D00086FDFCCF08956770FC0160830C94CD0010
:1001E00020917C00207F20937C0020917C00FC01EA
:1001F0008081282B20937C0080917A0080648093FA
:100200007A0080917A0086FDFCCF809178009091F1
:1002100079000895FC01108211821282638310928A
:10022000B9008CE08093B800089508951092B90049
:100230008CE08093B8000895FC0110821182109226
:10024000BC0084EA8093BC008091BC0087FFFCCF97
:100250008091B900887F883011F481E080838381A8
:100260008093BB0084E88093BC008091BC0087FF32
:10027000FCCF8091B900887F883111F481E08183BF
:10028000089584E98093BC000895FC011282609374
:10029000BB0024E82093BC002091BC0027FFFCCFCA
:1002A0002091B900287F283219F421E0FC01228333
:1002B00008950F931F93CF93DF931F92CDB7DEB7AF
:1002C0008C0169830E941C016981C8010E9445015B
:1002D00084E98093BC000F90DF91CF911F910F9123
:1002E0000895FC0180810895FC0181810895FC013D
:1002F00082810895FC0171836083128213821482CB
:100300000895089568E0FC01808191810C94590161
:1003100060E0FC01808191810C9459011F93CF937F
:10032000DF93EC01162F6460888199810E94590146
:100330008FE19EE40197F1F700C00000612F6B7F11
:10034000888199810E9459018FE99FE00197F1F717
:1003500000C00000DF91CF911F9108951F93CF93AC
:10036000DF93EC01162F6D7F888199810E945901DE
:10037000612FCE01DF91CF911F910C948E01EF92EE
:10038000FF921F93CF93DF931F92CDB7DEB77C010F
:10039000162F607F642B49830E94AE0180E1189F75
:1003A000B00111244981642BC7010F90DF91CF91D7
:1003B0001F91FF90EF900C94AE0140E00E94BF01AE
:1003C0008FE19EE40197F1F700C00000089561E01D
:1003D0000E94DD012FEF8FE193E02150804090409B
:1003E000E1F700C00000089562E00E94DD012FEFF8
:1003F0008FE193E0215080409040E1F700C0000081
:100400000895CF93DF93EC016FE00E94DD016CE073
:10041000CE010E94DD012FEF89EF90E02150804056
:100420009040E1F700C00000DF91CF91089568E0AF
:100430000E94DD012FEF89EF90E021508040904035
:10044000E1F700C000000895CF93DF93EC016FE067
:100450000E94DD012FEF83EC99E021508040904015
:10046000E1F700C000006EE0CE010E94DD012FEF39
:1004700089EF90E0215080409040E1F700C00000FB
:10048000DF91CF910895CF93DF93EC016DE00E944F
:10049000DD012FEF83EC99E0215080409040E1F79F
:1004A00000C000006CE0CE010E94DD012FEF89EF5B
:1004B00090E0215080409040E1F700C00000DF91C3
:1004C000CF910895CF93DF93EC016DE00E94DD01A1
:1004D0002FEF83EC99E0215080409040E1F700C07D
:1004E00000006DE0CE010E94DD012FEF89EF90E06A
:1004F000215080409040E1F700C00000DF91CF9193
:100500000895CF93DF93EC016EE00E94DD012FEFA1
:1005100083EC99E0215080409040E1F700C000005A
:1005200068E0888199810E9459016CE0CE010E94A7
:10053000DD012FEF89EF90E0215080409040E1F7FE
:1005400000C00000DF91CF910895CF93DF93EC01BD
:100550002FEF87EA91E6215080409040E1F700C0FC
:10056000000064E0888199810E9459018FE39CE931
:100570000197F1F700C0000068E3CE010E94AE01D0
:100580009FE722E382E0915020408040E1F700C0E5
:10059000000068E3CE010E94AE019FE722E382E003
:1005A000915020408040E1F700C0000068E3CE0198
:1005B0000E94AE019FEF20E782E0915020408040F2
:1005C000E1F700C0000068E2CE010E94AE018FE5B5
:1005D0009AEE0197F1F700C0000068E2CE010E9498
:1005E000DD0195ED9A95F1F700006CE0CE010E94D7
:1005F000DD0125ED2A95F1F7000066E0CE010E94AD
:10060000DD0185ED8A95F1F7000061E0CE010E94E1
:10061000DD019FEF2FE183E0915020408040E1F722
:1006200000C00000DF91CF9108950C94A5020C94B6
:10063000A50241E00C94BF010F931F93CF93DF936A
:100640008C01EB016991662321F0C8010E94190316
:10065000F9CFDF91CF911F910F910895413041F073
:1006600028F0423039F0433039F00895605805C021
:10067000605403C06C5601C06C520C94DD010F93A2
:100680001F93CF93DF93EC0189010E942E03B801E1
:10069000CE01DF91CF911F910F910C941C03EF922B
:1006A000FF920F931F93CF93DF9300D000D01F9240
:1006B000CDB7DEB78C0179010E942E034AE050E0ED
:1006C000BE016F5F7F4FC7010E942408BE016F5FAC
:1006D0007F4FC8010E941C030F900F900F900F9046
:1006E0000F90DF91CF911F910F91FF90EF900895A0
:1006F0000F931F93CF93DF9300D000D01F92CDB7FD
:10070000DEB78C01CB014AE050E0BE016F5F7F4F46
:100710000E942408BE016F5F7F4FC8010E941C0326
:100720000F900F900F900F900F90DF91CF911F912E
:100730000F910895DC011296ED91FC911397329779
:10074000808121E030E014960C9002C0220F331F0C
:100750000A94E2F782230895DC011296ED91FC9150
:100760001397408121E030E014960C9002C0220FD4
:10077000331F0A94E2F7422740830895DC01129662
:10078000ED91FC911397429121E030E014960C908A
:1007900002C0220F331F0A94E2F7422740830895D4
:1007A000DC011296ED91FC91139714963C912081F7
:1007B00081E090E0032E01C0880F0A94EAF76623D7
:1007C00019F0282B20830895809582238083089533
:1007D000FC0170E0928183812481E92FF82F613040
:1007E000710559F0329181E090E0022E01C0880F2E
:1007F0000A94EAF78095832307C08291022E01C0F4
:10080000660F0A94EAF7862B80830895FFCFFC01D8
:100810008CE791E091838083628373834483368382
:1008200025832115310521F02130310569F0089526
:10083000FB01229181E090E0042E01C0880F0A9410
:10084000EAF78095822308C0FB018291042E01C043
:10085000220F0A94EAF7822B808308952CE731E077
:10086000FC013183208308950895EF92FF920F9346
:100870001F93CF93DF93EC01E62E8D859E85DC01DF
:10088000ED91FC910084F185E02D61E009958B8567
:100890009C85DC01ED91FC910190F081E02D61E0FF
:1008A00009958FE39CE90197F1F700C0000000E093
:1008B00010E0F12C8F859889DC01ED91FC9101907D
:1008C000F081E02D60E009958D859E859701002ED1
:1008D00002C0359527950A94E2F7DC01ED91FC9171
:1008E0000190F081E02D20FF02C061E001C060E0D6
:1008F00009958F859889DC01ED91FC910190F0813B
:10090000E02D61E009950F5F1F4F0830110591F64A
:10091000DF91CF911F910F91FF90EF900895EF928B
:10092000FF920F931F93CF93DF93EC01E62E8F85F9
:100930009889DC01ED91FC910190F081E02D60E05F
:10094000099500E010E0F12C8D859E859701002E21
:1009500002C0359527950A94E2F7DC01ED91FC91F0
:100960000190F081E02D20FF02C061E001C060E055
:1009700009958F859889DC01ED91FC910190F081BA
:10098000E02D61E009958F859889DC01ED91FC915E
:100990000190F081E02D60E009950F5F1F4F083056
:1009A000110591F68B859C85DC01ED91FC91019000
:1009B000F081E02D60E0DF91CF911F910F91FF90CA
:1009C000EF9009941F93CF93DF93EC01162F642FC0
:1009D000660F60680E943504812F90E06AE070E045
:1009E0000E94EE076295607F682BCE01DF91CF9168
:1009F0001F910C948F04FC01748763875687458789
:100A0000308B278747E050E060E00C94E204AF921F
:100A1000BF92CF92EF920F931F93CF93DF931F92CA
:100A2000CDB7DEB75C01142F605D46E050E029834E
:100A30000E94E20443E050E02981622FC5010E9438
:100A4000E20444E050E0612FC5010E94E20442E06C
:100A500050E0602FC5010E94E20441E050E06E2D9D
:100A6000C5010E94E20440E050E06C2DC5010F90EA
:100A7000DF91CF911F910F91EF90CF90BF90AF90EA
:100A80000C94E204DF92EF92FF920F931F93CF93A7
:100A9000DF93EC018D859E85DC01ED91FC91008456
:100AA000F185E02D60E009958D859E85DC01ED9155
:100AB000FC910190F081E02D60E009958F85988987
:100AC000DC01ED91FC910190F081E02D60E0099551
:100AD000BFEF20E782E0B15020408040E1F700C046
:100AE000000000E010E0D12CEE24E394F12C4B9BAD
:100AF00007C0C701002E01C0880F0A94EAF7D82A60
:100B00008F859889DC01ED91FC910190F081E02DB9
:100B100061E009958F859889DC01ED91FC91019048
:100B2000F081E02D60E009950F5F1F4F083011053F
:100B3000F1F68B859C85DC01ED91FC910190F081B3
:100B4000E02D60E009958D2DDF91CF911F910F91E0
:100B5000FF90EF90DF9008959B01207F332794E072
:100B6000369527959A95E1F7862F8F709AE0299F01
:100B7000800D11240895CF93DF93EC01660F616817
:100B80000E943504CE010E944205682F70E0CE011C
:100B9000DF91CF910C94AC05CF93DF93EC0166E02D
:100BA00070E00E94BB0590E08053984F98878F8338
:100BB00063E070E0CE010E94BB058B8364E070E0CF
:100BC000CE010E94BB058C8362E070E0CE010E94E2
:100BD000BB058A8361E070E0CE010E94BB0589837A
:100BE00060E070E0CE010E94BB058883DF91CF9169
:100BF0000895CB016AE070E00E94EE076295607F85
:100C0000862B0895CF93DF93CDB7DEB7C654D109B5
:100C10000FB6F894DEBF0FBECDBF6EE4CE018F5B82
:100C20009F4F0E940A0121E030E044E065E270E05D
:100C3000CE01C5960E94070421E030E043E065E262
:100C400070E0CE018E960E94070421E030E042E081
:100C500065E270E0CE0187960E94070421E030E053
:100C600042E06BE270E0CE0180960E94070421E032
:100C700030E043E06BE270E0CE0149960E94070449
:100C800021E030E044E06BE270E0CE0142960E9449
:100C900007049E012E5E3F4FAE01475E5F4FBE01CF
:100CA000605E7F4FCE0101960E94FB042DE2C22EB2
:100CB0003EE0E32E0EE02BE049E161EE77E0CE016D
:100CC00001960E94070560E0CE018A5B9F4F0E945B
:100CD000EB0062E0CE018B5B9F4F0E94EB00BE01F8
:100CE0006F5B7F4FCE01CC960E947A01CE01CC96ED
:100CF0000E94170341E063E0CE01CC960E942E03D0
:100D000064E071E0CE01CC960E941C0342E067E0F3
:100D1000CE01CC960E942E0363E171E0CE01CC9609
:100D20000E941C032FEF8BE792E9215080409040F6
:100D3000E1F700C000008E01045C1F4FC8010E9453
:100D4000E701C12CD12C76014CE3442E512C612CAF
:100D5000712C302E212ECE0101960E94CC05BE01B1
:100D60006F5F7F4FC8010E944B00BE016F5F7F4FD6
:100D7000C8010E948700CE018B5B9F4F0E94F0004C
:100D80004C01A12CB12C92E0B694A794979487942F
:100D90009A95D1F72AE082169104A104B104A8F42F
:100DA0002AE131E042E060E0C8010E943F03B40163
:100DB000C8010E9478036FEDC8010E9419036DE11C
:100DC00071E0C8010E941C0313C02AE131E042E037
:100DD00060E0C8010E943F03B401C8010E9478038B
:100DE0006FEDC8010E94190363E4C8010E94190352
:100DF00020E231E042E06EE0C8010E943F0368E279
:100E000070E0C8010E94780365E2C8010E941903DE
:100E100024E231E043E060E08AE0C816D104E10456
:100E2000F10468F4C8010E943F03B601C8010E94A2
:100E3000780365E2C8010E94190360E208C0C80196
:100E40000E943F03B601C8010E94780365E2C80111
:100E50000E9419038A81882339F08F3029F08E315E
:100E600019F08D3209F077CFC8010E94E70168E2DE
:100E700071E0C8010E941C032EE231E042E060E014
:100E8000C8010E943F039FEF23ED80E39150204073
:100E90008040E1F700C000008CE3B82EC12CD12CBB
:100EA000760161E0CE018E960E94D003CE018A5B6E
:100EB0009F4F0E94F000C80ED91EE11CF11C9FEF4D
:100EC00029E688E1915020408040E1F700C0000011
:100ED00060E0CE018E960E94D0039FEF29E688E164
:100EE000915020408040E1F700C00000BA94C9F65C
:100EF000C701B601A30192010E94020869017A01AB
:100F0000C8010E94E7012DE331E041E062E0C80141
:100F10000E943F0342E067E0C8010E942E03B60131
:100F2000C8010E9478039FEF23ED80E39150204099
:100F30008040E1F700C00000832D922D0E94E70160
:100F400023E1C216D104E104F10408F004CF68E201
:100F500071E0C8010E941C032AE431E042E060E035
:100F6000C8010E943F039FEF27EA81E6915020408D
:100F70008040E1F700C0000061E0CE01C5960E940C
:100F8000D003C8010E94E70168E571E0C8010E9432
:100F90001C0323E631E042E060E0C8010E943F0309
:100FA0009FEF23ED80E3915020408040E1F700C0A7
:100FB0000000CE018A5B9F4F0E94F0006C01E12C83
:100FC000F12C96E1C916D104E104F104D0F260E0FD
:100FD000CE01C5960E94D003C801B0CFAA1BBB1B8F
:100FE00051E107C0AA1FBB1FA617B70710F0A61B29
:100FF000B70B881F991F5A95A9F780959095BC014A
:10100000CD010895A1E21A2EAA1BBB1BFD010DC044
:10101000AA1FBB1FEE1FFF1FA217B307E407F507A8
:1010200020F0A21BB30BE40BF50B661F771F881F84
:10103000991F1A9469F760957095809590959B011A
:10104000AC01BD01CF010895FB019F01E89442303E
:10105000C4F04532B4F44A3029F497FB1EF490955D
:1010600081959F4F642F77270E94EE07805D8A331A
:101070000CF0895D8193CB010097A1F716F45DE236
:1010800051931082C9010C944508DC01FC01672FC3
:1010900071917723E1F7329704C07C916D9370834F
:0E10A0006291AE17BF07C8F30895F894FFCF12
:1010AE002F00300069727269676174696F6E206219
:1010BE006F74007665722E303100543A0043200072
:1010CE0072683A00534D3A007374617274006D6524
:1010DE0061737572656D656E742E2E2E0053656E7E
:1010EE00736F722076616C756500697272696761E3
:1010FE0074696F6E2E2E2E00697272696761746943
:10110E006F6E006E65656465640000000000060485
:10111E00060406040604060400000000D0039A0329
:06112E00AC03BE03E80360
:00000001FF
