:100000000C9434000C9449000C9449000C94490061
:100010000C9449000C9449000C9449000C9449003C
:100020000C9449000C9449000C9449000C9449002C
:100030000C9449000C9449000C9449000C9449001C
:100040000C9449000C9449000C9449000C9449000C
:100050000C9449000C9449000C9449000C944900FC
:100060000C9449000C94490011241FBECFEFD8E036
:10007000DEBFCDBF11E0A0E0B1E0E8ECF0E102C0EE
:1000800005900D92A638B107D9F70E94A1050C94EE
:1000900062080C940000089580917C008064809335
:1000A0007C0080917C00807F80937C0080917A002E
:1000B000876080937A0080917A00806880937A00CC
:1000C00080917A00806480937A0080917A0086FD26
:1000D000FCCF08956770FC0160830C944C00209164
:1000E0007C00207F20937C0020917C00FC0180819B
:1000F000282B20937C0080917A00806480937A0082
:1001000080917A0086FDFCCF8091780090917900F3
:100110000895FC0110821182128263831092B9004B
:100120008CE08093B800089508951092B9008CE097
:100130008093B8000895FC01108211821092BC00D7
:1001400084EA8093BC008091BC0087FFFCCF809143
:10015000B900887F883011F481E0808383818093A7
:10016000BB0084E88093BC008091BC0087FFFCCF7B
:100170008091B900887F883111F481E081830895EE
:1001800084E98093BC000895FC0112826093BB0057
:1001900024E82093BC002091BC0027FFFCCF2091D5
:1001A000B900287F283219F421E0FC012283089548
:1001B0000F931F93CF93DF931F92CDB7DEB78C01C0
:1001C00069830E949B006981C8010E94C40084E980
:1001D0008093BC000F90DF91CF911F910F910895F4
:1001E000FC0180810895FC0181810895FC018281D8
:1001F0000895FC0171836083128213821482089532
:10020000089568E0FC01808191810C94D80060E041
:10021000FC01808191810C94D8001F93CF93DF93D0
:10022000EC01162F6460888199810E94D8008FE1CB
:100230009EE40197F1F700C00000612F6B7F888179
:1002400099810E94D8008FE99FE00197F1F700C0E3
:100250000000DF91CF911F9108951F93CF93DF93FB
:10026000EC01162F6D7F888199810E94D800612F43
:10027000CE01DF91CF911F910C940D01EF92FF926F
:100280001F93CF93DF931F92CDB7DEB77C01162F5C
:10029000607F642B49830E942D0180E1189FB0018B
:1002A00011244981642BC7010F90DF91CF911F91D9
:1002B000FF90EF900C942D0140E00E943E018FE1F1
:1002C0009EE40197F1F700C00000089561E00E94EC
:1002D0005C012FEF8FE193E0215080409040E1F7E7
:1002E00000C00000089562E00E945C012FEF8FE1E2
:1002F00093E0215080409040E1F700C00000089555
:10030000CF93DF93EC016FE00E945C016CE0CE01C3
:100310000E945C012FEF89EF90E0215080409040D7
:10032000E1F700C00000DF91CF91089568E00E94DE
:100330005C012FEF89EF90E0215080409040E1F781
:1003400000C000000895CF93DF93EC016FE00E949E
:100350005C012FEF83EC99E0215080409040E1F761
:1003600000C000006EE0CE010E945C012FEF89EF1B
:1003700090E0215080409040E1F700C00000DF9104
:10038000CF910895CF93DF93EC016DE00E945C0163
:100390002FEF83EC99E0215080409040E1F700C0BE
:1003A00000006CE0CE010E945C012FEF89EF90E02D
:1003B000215080409040E1F700C00000DF91CF91D4
:1003C0000895CF93DF93EC016DE00E945C012FEF65
:1003D00083EC99E0215080409040E1F700C000009C
:1003E0006DE0CE010E945C012FEF89EF90E021507B
:1003F00080409040E1F700C00000DF91CF91089568
:10040000CF93DF93EC016EE00E945C012FEF83EC51
:1004100099E0215080409040E1F700C0000068E082
:10042000888199810E94D8006CE0CE010E945C0115
:100430002FEF89EF90E0215080409040E1F700C01D
:100440000000DF91CF910895CF93DF93EC012FEF60
:1004500087EA91E6215080409040E1F700C000001B
:1004600064E0888199810E94D8008FE39CE901971C
:10047000F1F700C0000068E3CE010E942D019FE764
:1004800022E382E0915020408040E1F700C000006C
:1004900068E3CE010E942D019FE722E382E09150A4
:1004A00020408040E1F700C0000068E3CE010E94D8
:1004B0002D019FEF20E782E0915020408040E1F73E
:1004C00000C0000068E2CE010E942D018FE59AEE87
:1004D0000197F1F700C0000068E2CE010E945C01C4
:1004E00095ED9A95F1F700006CE0CE010E945C0159
:1004F00025ED2A95F1F7000066E0CE010E945C012F
:1005000085ED8A95F1F7000061E0CE010E945C0163
:100510009FEF2FE183E0915020408040E1F700C041
:100520000000DF91CF9108950C9424020C942402D2
:1005300041E00C943E010F931F93CF93DF938C0106
:10054000EB016991662321F0C8010E949802F9CF5E
:10055000DF91CF911F910F910895413041F028F024
:10056000423039F0433039F00895605805C0605486
:1005700003C06C5601C06C520C945C010F931F9326
:10058000CF93DF93EC0189010E94AD02B801CE0147
:10059000DF91CF911F910F910C949B020F931F93AA
:1005A000542F422FFC0171836083128213821482C4
:1005B0009801652F1F910F910C94BE02EF92FF924C
:1005C0000F931F93CF93DF9300D000D01F92CDB72E
:1005D000DEB78C0179010E94AD024AE050E0BE0115
:1005E0006F5F7F4FC7010E943108BE016F5F7F4F71
:1005F000C8010E949B020F900F900F900F900F90D8
:10060000DF91CF911F910F91FF90EF9008950F937D
:100610001F93542F422FFC01718360831282138237
:1006200014829801652F1F910F910C94DE020F9395
:100630001F93CF93DF9300D000D01F92CDB7DEB7CA
:100640008C01CB014AE050E0BE016F5F7F4F0E94FA
:100650003108BE016F5F7F4FC8010E949B020F905F
:100660000F900F900F900F90DF91CF911F910F91EE
:100670000895DC011296ED91FC91139732978081D9
:1006800021E030E014960C9002C0220F331F0A9430
:10069000E2F782230895DC011296ED91FC91139705
:1006A000408121E030E014960C9002C0220F331FED
:1006B0000A94E2F7422740830895DC011296ED91F7
:1006C000FC911397429121E030E014960C9002C007
:1006D000220F331F0A94E2F7422740830895DC017A
:1006E0001296ED91FC91139714963C91208181E034
:1006F00090E0032E01C0880F0A94EAF7662319F0F0
:10070000282B208308958095822380830895FC01FF
:1007100070E0928183812481E92FF82F6130710587
:1007200059F0329181E090E0022E01C0880F0A94C6
:10073000EAF78095832307C08291022E01C0660FDD
:100740000A94EAF7862B80830895FFCFFC018CE79B
:1007500091E091838083628373834483368325830E
:100760002115310521F02130310569F00895FB0193
:10077000229181E090E0042E01C0880F0A94EAF7EC
:100780008095822308C0FB018291042E01C0220FB4
:100790000A94EAF7822B808308952CE731E0FC016C
:1007A0003183208308950895EF92FF920F931F9352
:1007B000CF93DF93EC01E62E8D859E85DC01ED91D4
:1007C000FC910084F185E02D61E009958B859C8585
:1007D000DC01ED91FC910190F081E02D61E0099543
:1007E0008FE39CE90197F1F700C0000000E010E002
:1007F000F12C8F859889DC01ED91FC910190F081BD
:10080000E02D60E009958D859E859701002E02C040
:10081000359527950A94E2F7DC01ED91FC91019062
:10082000F081E02D20FF02C061E001C060E0099589
:100830008F859889DC01ED91FC910190F081E02D8C
:1008400061E009950F5F1F4F0830110591F6DF91A8
:10085000CF911F910F91FF90EF900895EF92FF922B
:100860000F931F93CF93DF93EC01E62E8F8598892A
:10087000DC01ED91FC910190F081E02D60E00995A3
:1008800000E010E0F12C8D859E859701002E02C0BE
:10089000359527950A94E2F7DC01ED91FC910190E2
:1008A000F081E02D20FF02C061E001C060E0099509
:1008B0008F859889DC01ED91FC910190F081E02D0C
:1008C00061E009958F859889DC01ED91FC9101909B
:1008D000F081E02D60E009950F5F1F4F0830110592
:1008E00091F68B859C85DC01ED91FC910190F08166
:1008F000E02D60E0DF91CF911F910F91FF90EF907D
:1009000009941F93CF93DF93EC01162F642F660F8A
:1009100060680E94D403812F90E06AE070E00E943A
:10092000FB076295607F682BCE01DF91CF911F910D
:100930000C942E04FC017487638756874587308B9F
:10094000278747E050E060E00C948104AF92BF92AB
:10095000CF92EF920F931F93CF93DF931F92CDB758
:10096000DEB75C01142F605D46E050E029830E94F1
:10097000810443E050E02981622FC5010E94810477
:1009800044E050E0612FC5010E94810442E050E044
:10099000602FC5010E94810441E050E06E2DC50129
:1009A0000E94810440E050E06C2DC5010F90DF9162
:1009B000CF911F910F91EF90CF90BF90AF900C947B
:1009C0008104DF92EF92FF920F931F93CF93DF93F7
:1009D000EC018D859E85DC01ED91FC910084F18513
:1009E000E02D60E009958D859E85DC01ED91FC91FF
:1009F0000190F081E02D60E009958F859889DC01F8
:100A0000ED91FC910190F081E02D60E00995BFEF40
:100A100020E782E0B15020408040E1F700C00000B4
:100A200000E010E0D12CEE24E394F12C4B9B07C0A6
:100A3000C701002E01C0880F0A94EAF7D82A8F85D3
:100A40009889DC01ED91FC910190F081E02D61E04D
:100A500009958F859889DC01ED91FC910190F081D9
:100A6000E02D60E009950F5F1F4F08301105F1F68A
:100A70008B859C85DC01ED91FC910190F081E02D4E
:100A800060E009958D2DDF91CF911F910F91FF901F
:100A9000EF90DF9008959B01207F332794E03695F7
:100AA00027959A95E1F7862F8F709AE0299F800D00
:100AB00011240895CF93DF93EC01660F61680E94C3
:100AC000D403CE010E94E104682F70E0CE01DF91D3
:100AD000CF910C944B05CF93DF93EC0166E070E06F
:100AE0000E945A0590E08053984F98878F8363E067
:100AF00070E0CE010E945A058B8364E070E0CE0165
:100B00000E945A058C8362E070E0CE010E945A0573
:100B10008A8361E070E0CE010E945A05898360E01B
:100B200070E0CE010E945A058883DF91CF9108952D
:100B3000CB016AE070E00E94FB076295607F862B24
:100B40000895CF93DF93CDB7DEB7CB54D1090FB65D
:100B5000F894DEBF0FBECDBF6EE4CE018A5B9F4F1F
:100B60000E94890021E030E044E065E270E0CE01BF
:100B7000C5960E94A60321E030E043E065E270E004
:100B8000CE018E960E94A60321E030E042E065E2AD
:100B900070E0CE0187960E94A60321E030E042E09B
:100BA0006BE270E0CE0180960E94A60321E030E067
:100BB00043E06BE270E0CE0149960E94A60321E07B
:100BC00030E044E06BE270E0CE0142960E94A60362
:100BD0009E012E5E3F4FAE01475E5F4FBE01605EDD
:100BE0007F4FCE0101960E949A042DE2C22E3EE074
:100BF000E32E0EE02BE049E161EE77E0CE010196B5
:100C00000E94A60460E0CE01855B9F4F0E946A00AF
:100C100062E0CE01865B9F4F0E946A00BE016A5B64
:100C20007F4FCE018F5B9F4F0E94F9000885198589
:100C300020E040E0BE016A5B7F4FCE01CC960E946F
:100C40000703CE018F5B9F4F0E949602CE018F5B00
:100C50009F4F0E94660141E063E0CE018F5B9F4F92
:100C60000E94AD0260E071E0CE018F5B9F4F0E9459
:100C70009B0242E067E0CE018F5B9F4F0E94AD0276
:100C80006FE071E0CE018F5B9F4F0E949B022FEFC0
:100C90008BE792E9215080409040E1F700C00000CE
:100CA0008E010F5B1F4FC8010E946601C12CD12C21
:100CB00076014CE3442E512C612C712C302E212EC8
:100CC000CE0101960E946B0540E060E0C8010E94E1
:100CD000AD0268857985C8010E94170366E171E05D
:100CE000C8010E949B026D816A3030F468E171E0B6
:100CF000C8010E949B026D8170E0C8010E94170329
:100D000066E171E0C8010E949B026C816A3030F498
:100D100068E171E0C8010E949B026C8170E0C8012B
:100D20000E94170340E06CE0C8010E94AD026B8195
:100D30006A3030F468E171E0C8010E949B026B8167
:100D400070E0C8010E94170366E271E0C8010E94CA
:100D50009B026A816A3030F468E171E0C8010E9448
:100D60009B026A8170E0C8010E94170366E271E08D
:100D7000C8010E949B0269816A3030F468E171E029
:100D8000C8010E949B02698170E0C8010E9417039C
:100D9000CE01865B9F4F0E946F004C01A12CB12CAD
:100DA00092E0B694A794979487949A95D1F72AE005
:100DB00082169104A104B104A8F42AE131E042E0D2
:100DC00060E0C8010E94BE02B401C8010E9417037E
:100DD0006FEDC8010E9498026DE171E0C8010E94A8
:100DE0009B0213C02AE131E042E060E0C8010E94AA
:100DF000BE02B401C8010E9417036FEDC8010E9432
:100E0000980263E4C8010E94980220E231E042E0C7
:100E10006EE0C8010E94BE0268E270E0C8010E9454
:100E2000170365E2C8010E94980224E231E043E022
:100E300060E08AE0C816D104E104F10468F4C80156
:100E40000E94BE02B601C8010E94170365E2C801F4
:100E50000E94980260E208C0C8010E94BE02B6016A
:100E6000C8010E94170365E2C8010E9498028A81A6
:100E7000882339F08F3029F08E3119F08D3209F046
:100E80001FCFC8010E94660168E271E0C8010E949C
:100E90009B022EE231E042E060E0C8010E94BE0207
:100EA0009FEF23ED80E3915020408040E1F700C0A8
:100EB00000008CE3B82EC12CD12C760161E0CE016C
:100EC0008E960E946F03CE01855B9F4F0E946F003C
:100ED000C80ED91EE11CF11C9FEF29E688E1915054
:100EE00020408040E1F700C0000060E0CE018E9617
:100EF0000E946F039FEF29E688E1915020408040D7
:100F0000E1F700C00000BA94C9F6C701B601A30119
:100F100092010E940F0869017A01C8010E946601CE
:100F20002DE331E041E062E0C8010E94BE0242E0F0
:100F300067E0C8010E94AD02B601C8010E94170314
:100F40009FEF23ED80E3915020408040E1F700C007
:100F50000000832D922D0E94660123E1C216D10468
:100F6000E104F10408F0ACCE68E271E0C8010E942F
:100F70009B022AE431E042E060E0C8010E94BE0228
:100F80009FEF27EA81E6915020408040E1F700C0C2
:100F9000000061E0CE01C5960E946F03C8010E9467
:100FA000660168E571E0C8010E949B0223E631E01A
:100FB00042E060E0C8010E94BE029FEF23ED80E3A3
:100FC000915020408040E1F700C00000CE01855BD9
:100FD0009F4F0E946F006C01E12CF12C96E1C91625
:100FE000D104E104F104D0F260E0CE01C5960E9484
:100FF0006F03C801B0CFAA1BBB1B51E107C0AA1FDA
:10100000BB1FA617B70710F0A61BB70B881F991FA9
:101010005A95A9F780959095BC01CD010895A1E25C
:101020001A2EAA1BBB1BFD010DC0AA1FBB1FEE1F62
:10103000FF1FA217B307E407F50720F0A21BB30BAD
:10104000E40BF50B661F771F881F991F1A9469F729
:1010500060957095809590959B01AC01BD01CF0185
:101060000895FB019F01E8944230C4F04532B4F486
:101070004A3029F497FB1EF4909581959F4F642F79
:1010800077270E94FB07805D8A330CF0895D81938E
:10109000CB010097A1F716F45DE251931082C901CC
:1010A0000C945208DC01FC01672F71917723E1F762
:1010B000329704C07C916D9370836291AE17BF0725
:0810C000C8F30895F894FFCF76
:1010C80069727269676174696F6E20626F74007605
:1010D80065722E3031002F003000543A0043200052
:1010E80072683A00534D3A007374617274006D650A
:1010F80061737572656D656E742E2E2E0053656E64
:10110800736F722076616C756500697272696761C8
:1011180074696F6E2E2E2E00697272696761746928
:101128006F6E006E65656465640000000000A503CD
:10113800A503A503A503A503000000006F03390359
:061148004B035D03870369
:00000001FF
