:100000000C9434000C9449000C9449000C94490061
:100010000C9449000C9449000C9449000C9449003C
:100020000C9449000C9449000C9449000C9449002C
:100030000C9449000C9449000C9449000C9449001C
:100040000C9449000C9449000C9449000C9449000C
:100050000C9449000C9449000C9449000C944900FC
:100060000C9449000C94490011241FBECFEFD8E036
:10007000DEBFCDBF11E0A0E0B1E0E2E9F0E102C0F7
:1000800005900D92A638B107D9F70E94F4050C949B
:1000900047080C9400000F931F93CF93DF93EC015C
:1000A0008B0140E060E00E942003F80167817085C9
:1000B000CE010E946A0360E071E0CE010E940E034F
:1000C000F80164816A3038F462E071E0CE010E9488
:1000D0000E03F801648170E0CE010E946A0360E0C3
:1000E00071E0CE010E940E03F80163816A3038F49A
:1000F00062E071E0CE010E940E03F801638170E0BE
:10010000CE01DF91CF911F910F910C946A030F9351
:100110001F93CF93DF93EC018B0140E06CE00E94D2
:100120002003F80162816A3038F462E071E0CE01A8
:100130000E940E03F801628170E0CE010E946A0302
:1001400066E271E0CE010E940E03F80161816A301F
:1001500038F462E071E0CE010E940E03F801618183
:1001600070E0CE010E946A0366E271E0CE010E9457
:100170000E03F80160816A3038F462E071E0CE016C
:100180000E940E03F801608170E0CE01DF91CF91F3
:100190001F910F910C946A03089580917C008064F4
:1001A00080937C0080917C00807F80937C00809194
:1001B0007A00876080937A0080917A0080688093CB
:1001C0007A0080917A00806480937A0080917A002E
:1001D00086FDFCCF08956770FC0160830C94CD0010
:1001E00020917C00207F20937C0020917C00FC01EA
:1001F0008081282B20937C0080917A0080648093FA
:100200007A0080917A0086FDFCCF809178009091F1
:1002100079000895FC0160831092B9008CE080930E
:10022000B800089508951092B9008CE08093B8004A
:1002300008951092BC0024EA2093BC002091BC00D9
:1002400027FFFCCFFC0180818093BB0084E8809372
:10025000BC008091BC0087FFFCCF089584E98093A7
:10026000BC0008956093BB0084E88093BC0080913B
:10027000BC0087FFFCCF08950F931F93CF93DF93AC
:100280001F92CDB7DEB78C0169830E941901698185
:10029000C8010E94320184E98093BC000F90DF9175
:1002A000CF911F910F91089584EC8093BC008091B1
:1002B000BC0087FFFCCF8091BB000895CF93DF93F4
:1002C000EC010E941901CE010E94540194E990931F
:1002D000BC00DF91CF910895FC017183608312828D
:1002E000138214820895089568E0FC018081918151
:1002F0000C943C0160E0FC01808191810C943C01F4
:100300001F93CF93DF93EC01162F6460888199814E
:100310000E943C018FE19EE40197F1F700C00000CC
:10032000612F6B7F888199810E943C018FE99FE05A
:100330000197F1F700C00000DF91CF911F91089560
:100340001F93CF93DF93EC01162F6D7F88819981E6
:100350000E943C01612FCE01DF91CF911F910C943F
:100360008001EF92FF921F93CF93DF931F92CDB73F
:10037000DEB77C01162F607F642B49830E94A001A9
:1003800080E1189FB00111244981642BC7010F90AF
:10039000DF91CF911F91FF90EF900C94A00140E06E
:1003A0000E94B1018FE19EE40197F1F700C00000C7
:1003B000089561E00E94CF012FEF8FE193E021507B
:1003C00080409040E1F700C00000089562E00E9484
:1003D000CF012FEF8FE193E0215080409040E1F773
:1003E00000C000000895CF93DF93EC016FE00E94FE
:1003F000CF016CE0CE010E94CF012FEF89EF90E09A
:10040000215080409040E1F700C00000DF91CF9183
:10041000089568E00E94CF012FEF89EF90E021500E
:1004200080409040E1F700C000000895CF93DF9333
:10043000EC016FE00E94CF012FEF83EC99E0215097
:1004400080409040E1F700C000006EE0CE010E94C5
:10045000CF012FEF89EF90E0215080409040E1F7ED
:1004600000C00000DF91CF910895CF93DF93EC019E
:100470006DE00E94CF012FEF83EC99E02150804086
:100480009040E1F700C000006CE0CE010E94CF0177
:100490002FEF89EF90E0215080409040E1F700C0BD
:1004A0000000DF91CF910895CF93DF93EC016DE0D1
:1004B0000E94CF012FEF83EC99E0215080409040C3
:1004C000E1F700C000006DE0CE010E94CF012FEFE8
:1004D00089EF90E0215080409040E1F700C000009B
:1004E000DF91CF910895CF93DF93EC016EE00E94EE
:1004F000CF012FEF83EC99E0215080409040E1F74D
:1005000000C0000068E0888199810E943C016CE095
:10051000CE010E94CF012FEF89EF90E02150804063
:100520009040E1F700C00000DF91CF910895CF9394
:10053000DF93EC012FEF87EA91E621508040904055
:10054000E1F700C0000064E0888199810E943C01CD
:100550008FE39CE90197F1F700C0000068E3CE014A
:100560000E94A0019FE722E382E09150204080405A
:10057000E1F700C0000068E3CE010E94A0019FE700
:1005800022E382E0915020408040E1F700C000006B
:1005900068E3CE010E94A0019FEF20E782E0915026
:1005A00020408040E1F700C0000068E2CE010E94D8
:1005B000A0018FE59AEE0197F1F700C0000068E214
:1005C000CE010E94CF0195ED9A95F1F700006CE005
:1005D000CE010E94CF0125ED2A95F1F7000066E0DB
:1005E000CE010E94CF0185ED8A95F1F7000061E010
:1005F000CE010E94CF019FEF2FE183E09150204078
:100600008040E1F700C00000DF91CF9108950C9485
:1006100097020C94970241E00C94B1010F931F9341
:10062000CF93DF938C01EB016991662321F0C80120
:100630000E940B03F9CFDF91CF911F910F91089585
:10064000413041F028F0423039F0433039F008951C
:10065000605805C0605403C06C5601C06C520C94C5
:10066000CF010F931F93CF93DF93EC0189010E9479
:100670002003B801CE01DF91CF911F910F910C940F
:100680000E03EF92FF920F931F93CF93DF9300D04F
:1006900000D01F92CDB7DEB78C0179010E942003F4
:1006A0004AE050E0BE016F5F7F4FC7010E9416080D
:1006B000BE016F5F7F4FC8010E940E030F900F9025
:1006C0000F900F900F90DF91CF911F910F91FF909E
:1006D000EF9008950F931F93CF93DF9300D000D036
:1006E0001F92CDB7DEB78C01CB014AE050E0BE01CE
:1006F0006F5F7F4F0E941608BE016F5F7F4FC8017A
:100700000E940E030F900F900F900F900F90DF91AB
:10071000CF911F910F910895DC011296ED91FC91FC
:1007200013973297808121E030E014960C9002C03C
:10073000220F331F0A94E2F782230895DC011296F8
:10074000ED91FC911397408121E030E014960C90DC
:1007500002C0220F331F0A94E2F742274083089514
:10076000DC011296ED91FC911397429121E030E06B
:1007700014960C9002C0220F331F0A94E2F742270E
:1007800040830895DC011296ED91FC911397149625
:100790003C91208181E090E0032E01C0880F0A94F3
:1007A000EAF7662319F0282B208308958095822389
:1007B00080830895FC0170E0928183812481E92F78
:1007C000F82F6130710559F0329181E090E0022EEE
:1007D00001C0880F0A94EAF78095832307C08291AD
:1007E000022E01C0660F0A94EAF7862B80830895D3
:1007F000FFCFFC018CE791E0918380836283738358
:100800004483368325832115310521F021303105BC
:1008100069F00895FB01229181E090E0042E01C06F
:10082000880F0A94EAF78095822308C0FB01829121
:10083000042E01C0220F0A94EAF7822B80830895C8
:100840002CE731E0FC013183208308950895EF9275
:10085000FF920F931F93CF93DF93EC01E62E8D85CC
:100860009E85DC01ED91FC910084F185E02D61E035
:1008700009958B859C85DC01ED91FC910190F081BF
:10088000E02D61E009958FE39CE90197F1F700C045
:10089000000000E010E0F12C8F859889DC01ED91DB
:1008A000FC910190F081E02D60E009958D859E8599
:1008B0009701002E02C0359527950A94E2F7DC01D6
:1008C000ED91FC910190F081E02D20FF02C061E0EC
:1008D00001C060E009958F859889DC01ED91FC915C
:1008E0000190F081E02D61E009950F5F1F4F083006
:1008F000110591F6DF91CF911F910F91FF90EF902D
:100900000895EF92FF920F931F93CF93DF93EC0123
:10091000E62E8F859889DC01ED91FC910190F081A4
:10092000E02D60E0099500E010E0F12C8D859E85BA
:100930009701002E02C0359527950A94E2F7DC0155
:10094000ED91FC910190F081E02D20FF02C061E06B
:1009500001C060E009958F859889DC01ED91FC91DB
:100960000190F081E02D61E009958F859889DC0187
:10097000ED91FC910190F081E02D60E009950F5F11
:100980001F4F0830110591F68B859C85DC01ED9198
:10099000FC910190F081E02D60E0DF91CF911F91FB
:1009A0000F91FF90EF9009941F93CF93DF93EC0189
:1009B000162F642F660F60680E942704812F90E035
:1009C0006AE070E00E94E0076295607F682BCE01CC
:1009D000DF91CF911F910C948104FC017487638790
:1009E00056874587308B278747E050E060E00C94BE
:1009F000D404AF92BF92CF92EF920F931F93CF93F5
:100A0000DF931F92CDB7DEB75C01142F605D46E027
:100A100050E029830E94D40443E050E02981622FF2
:100A2000C5010E94D40444E050E0612FC5010E943A
:100A3000D40442E050E0602FC5010E94D40441E09C
:100A400050E06E2DC5010E94D40440E050E06C2DB2
:100A5000C5010F90DF91CF911F910F91EF90CF9033
:100A6000BF90AF900C94D404DF92EF92FF920F935B
:100A70001F93CF93DF93EC018D859E85DC01ED9173
:100A8000FC910084F185E02D60E009958D859E85BF
:100A9000DC01ED91FC910190F081E02D60E0099581
:100AA0008F859889DC01ED91FC910190F081E02D1A
:100AB00060E00995BFEF20E782E0B1502040804020
:100AC000E1F700C0000000E010E0D12CEE24E39438
:100AD000F12C4B9B07C0C701002E01C0880F0A9460
:100AE000EAF7D82A8F859889DC01ED91FC91019075
:100AF000F081E02D61E009958F859889DC01ED9109
:100B0000FC910190F081E02D60E009950F5F1F4F8F
:100B100008301105F1F68B859C85DC01ED91FC9187
:100B20000190F081E02D60E009958D2DDF91CF914E
:100B30001F910F91FF90EF90DF9008959B01207F10
:100B4000332794E0369527959A95E1F7862F8F7095
:100B50009AE0299F800D11240895CF93DF93EC0133
:100B6000660F61680E942704CE010E943405682F39
:100B700070E0CE01DF91CF910C949E05CF93DF936F
:100B8000EC0166E070E00E94AD0590E08053984F64
:100B900098878F8363E070E0CE010E94AD058B8360
:100BA00064E070E0CE010E94AD058C8362E070E0ED
:100BB000CE010E94AD058A8361E070E0CE010E9403
:100BC000AD05898360E070E0CE010E94AD058883A9
:100BD000DF91CF910895CB016AE070E00E94E007B9
:100BE0006295607F862B0895CF93DF93CDB7DEB7F4
:100BF000C354D1090FB6F894DEBF0FBECDBF6EE46B
:100C0000CE018D5B9F4F0E940A0121E030E044E05D
:100C100065E270E0CE01C5960E94F90321E030E064
:100C200043E065E270E0CE018E960E94F90321E078
:100C300030E042E065E270E0CE0187960E94F90361
:100C400021E030E042E06BE270E0CE0180960E944D
:100C5000F90321E030E043E06BE270E0CE01499619
:100C60000E94F90321E030E044E06BE270E0CE0145
:100C700042960E94F9039E012E5E3F4FAE01475EF1
:100C80005F4FBE01605E7F4FCE0101960E94ED0472
:100C90002DE2C22E3EE0E32E0EE02BE049E161EEB4
:100CA00077E0CE0101960E94F90460E0CE018E5BF0
:100CB0009F4F0E94EB0062E0CE018F5B9F4F0E942E
:100CC000EB00BE016D5B7F4FCE01CC960E946C01A4
:100CD000CE01CC960E94090341E063E0CE01CC96A0
:100CE0000E94200364E071E0CE01CC960E940E03C6
:100CF00042E067E0CE01CC960E94200363E171E000
:100D0000CE01CC960E940E032FEF8BE792E9215083
:100D100080409040E1F700C000008E01045C1F4F4E
:100D2000C8010E94D901C12CD12C76014CE3442E7C
:100D3000512C612C712C302E212ECE0101960E9457
:100D4000BE05BE016F5F7F4FC8010E944B00BE0110
:100D50006F5F7F4FC8010E948700CE018F5B9F4F5E
:100D60000E94F0004C01A12CB12C92E0B694A79403
:100D7000979487949A95D1F72AE082169104A1045A
:100D8000B104A8F42AE131E042E060E0C8010E9429
:100D90003103B401C8010E946A036FEDC8010E94CB
:100DA0000B036DE171E0C8010E940E0313C02AE13C
:100DB00031E042E060E0C8010E943103B401C801A3
:100DC0000E946A036FEDC8010E940B0363E4C8012F
:100DD0000E940B0320E231E042E06EE0C8010E9475
:100DE000310368E270E0C8010E946A0365E2C8014D
:100DF0000E940B0324E231E043E060E08AE0C81681
:100E0000D104E104F10468F4C8010E943103B60181
:100E1000C8010E946A0365E2C8010E940B0360E2F8
:100E200008C0C8010E943103B601C8010E946A03CC
:100E300065E2C8010E940B038A81882339F08F3054
:100E400029F08E3119F08D3209F077CFC8010E9458
:100E5000D90168E271E0C8010E940E032EE231E080
:100E600042E060E0C8010E9431039FEF23ED80E380
:100E7000915020408040E1F700C000008CE3B82E84
:100E8000C12CD12C760161E0CE018E960E94C20366
:100E9000CE018E5B9F4F0E94F000C80ED91EE11C50
:100EA000F11C9FEF29E688E1915020408040E1F756
:100EB00000C0000060E0CE018E960E94C2039FEF4A
:100EC00029E688E1915020408040E1F700C0000011
:100ED000BA94C9F6C701B601A30192010E94F407B2
:100EE00069017A01C8010E94D9012DE331E041E096
:100EF00062E0C8010E94310342E067E0C8010E943D
:100F00002003B601C8010E946A039FEF23ED80E32E
:100F1000915020408040E1F700C00000832D922DC9
:100F20000E94D90123E1C216D104E104F10408F0C2
:100F300004CF68E271E0C8010E940E032AE431E0A8
:100F400042E060E0C8010E9431039FEF27EA81E69A
:100F5000915020408040E1F700C0000061E0CE01E8
:100F6000C5960E94C203C8010E94D90168E571E0DC
:100F7000C8010E940E0323E631E042E060E0C801B0
:100F80000E9431039FEF23ED80E391502040804089
:100F9000E1F700C00000CE018E5B9F4F0E94F00081
:100FA0006C01E12CF12C96E1C916D104E104F104A5
:100FB000D0F260E0CE01C5960E94C203C801B0CF56
:100FC000AA1BBB1B51E107C0AA1FBB1FA617B7076F
:100FD00010F0A61BB70B881F991F5A95A9F780958B
:100FE0009095BC01CD010895A1E21A2EAA1BBB1B4E
:100FF000FD010DC0AA1FBB1FEE1FFF1FA217B307E5
:10100000E407F50720F0A21BB30BE40BF50B661FFA
:10101000771F881F991F1A9469F7609570958095BE
:1010200090959B01AC01BD01CF010895FB019F018B
:10103000E8944230C4F04532B4F44A3029F497FBC6
:101040001EF4909581959F4F642F77270E94E007AB
:10105000805D8A330CF0895D8193CB010097A1F705
:1010600016F45DE251931082C9010C943708DC013B
:10107000FC01672F71917723E1F7329704C07C91CF
:101080006D9370836291AE17BF07C8F30895F8940B
:02109000FFCF90
:101092002F00300069727269676174696F6E206235
:1010A2006F74007665722E303100543A004320008E
:1010B20072683A00534D3A007374617274006D6540
:1010C20061737572656D656E742E2E2E0053656E9A
:1010D200736F722076616C756500697272696761FF
:1010E20074696F6E2E2E2E0069727269676174695F
:1010F2006F6E006E65656465640000000000F803B1
:10110200F803F803F803F80300000000C2038C039D
:061112009E03B003DA03A6
:00000001FF
