:100000000C9434000C9449000C9449000C94490061
:100010000C9449000C9449000C9449000C9449003C
:100020000C9449000C9449000C9449000C9449002C
:100030000C9449000C9449000C9449000C9449001C
:100040000C9449000C9449000C9449000C9449000C
:100050000C9449000C9449000C9449000C944900FC
:100060000C9449000C94490011241FBECFEFD8E036
:10007000DEBFCDBF11E0A0E0B1E0E4E2FEE002C0EF
:1000800005900D92A235B107D9F70E9481050C9415
:1000900010070C940000089580917C008064809388
:1000A0007C0080917C00807F80937C0080917A002E
:1000B000876080937A0080917A00806880937A00CC
:1000C00080917A00806480937A0080917A0086FD26
:1000D000FCCF08956770FC0160830C944C00209164
:1000E0007C00FC018081282B20937C0080917A0089
:1000F000806480937A0080917A0086FDFCCF8091A5
:100100007800909179000895FC011082118212828A
:1001100063831092B9008CE08093B800089508952D
:100120001092B9008CE08093B8000895FC01108211
:1001300011821092BC0084EA8093BC008091BC00C4
:1001400087FFFCCF8091B900887F883011F481E06F
:10015000808383818093BB0084E88093BC0080917E
:10016000BC0087FFFCCF8091B900887F883111F4F3
:1001700081E08183089584E98093BC000895FC01A7
:1001800012826093BB0024E82093BC002091BC0045
:1001900027FFFCCF2091B900287F283219F421E0F5
:1001A000FC01228308950F931F93CF93DF931F9237
:1001B000CDB7DEB78C0169830E9496006981C801C2
:1001C0000E94BF0084E98093BC000F90DF91CF9123
:1001D0001F910F910895FC0180810895FC01818198
:1001E0000895FC0182810895FC017183608312826D
:1001F000138214820895089568E0FC018081918142
:100200000C94D30060E0FC01808191810C94D300B8
:100210001F93CF93DF93EC01162F6460888199813F
:100220000E94D3008FE19EE40197F1F700C0000027
:10023000612F6B7F888199810E94D3008FE99FE0B5
:100240000197F1F700C00000DF91CF911F91089551
:100250001F93CF93DF93EC01162F6D7F6860888129
:1002600099810E94D300612F6860CE01DF91CF9108
:100270001F910C940801EF92FF921F93CF93DF938D
:100280001F92CDB7DEB77C01162F607F642B4983A8
:100290000E94280180E1189FB00111244981642B3C
:1002A000C7010F90DF91CF911F91FF90EF900C94B9
:1002B000280140E00E943B018FE19EE40197F1F7A5
:1002C00000C00000089561E00E9459012FEF8FE106
:1002D00093E0215080409040E1F700C00000089575
:1002E00062E00E9459012FEF8FE193E0215080409E
:1002F0009040E1F700C000000895CF93DF93EC0138
:100300006FE00E9459016CE0CE010E9459012FEF6D
:1003100089EF90E0215080409040E1F700C000005C
:10032000DF91CF91089568E00E9459012FEF89EF86
:1003300090E0215080409040E1F700C00000089517
:10034000CF93DF93EC016FE00E9459012FEF83EC14
:1003500099E0215080409040E1F700C000006EE03D
:10036000CE010E9459012FEF89EF90E0215080408B
:100370009040E1F700C00000DF91CF910895CF9346
:10038000DF93EC016DE00E9459012FEF83EC99E0BF
:10039000215080409040E1F700C000006CE0CE01A9
:1003A0000E9459012FEF89EF90E02150804090404A
:1003B000E1F700C00000DF91CF910895CF93DF9364
:1003C000EC016DE00E9459012FEF83EC99E0215080
:1003D00080409040E1F700C000006DE0CE010E9437
:1003E00059012FEF89EF90E0215080409040E1F7D4
:1003F00000C00000DF91CF910895CF93DF93EC010F
:100400006EE00E9459012FEF83EC99E0215080406B
:100410009040E1F700C0000068E0888199810E9467
:10042000D3006CE0CE010E9459012FEF89EF90E0DC
:10043000215080409040E1F700C00000DF91CF9153
:100440000895CF93DF93EC012FEF87EA91E62150D7
:1004500080409040E1F700C0000064E0888199810D
:100460000E94D3008FE39CE90197F1F700C00000E0
:1004700068E3CE010E9428019FE722E382E09150C9
:1004800020408040E1F700C0000068E3CE010E94F8
:1004900028019FE722E382E0915020408040E1F76D
:1004A00000C0000068E3CE010E9428019FEF20E712
:1004B00082E0915020408040E1F700C0000068E2F7
:1004C000CE010E9428018FE59AEE0197F1F700C056
:1004D000000068E2CE010E94590195ED9A95F1F76E
:1004E00000006FE0CE010E94590125ED2A95F1F739
:1004F000000066E0CE010E94590185ED8A95F1F772
:10050000000061E0CE010E9459019FEF2FE183E0DE
:10051000915020408040E1F700C00000DF91CF9172
:1005200008950C9421020C94210241E00C943B01AB
:100530000F931F93CF93DF938C01EB016991662397
:1005400021F0C8010E949502F9CFDF91CF911F9150
:100550000F910895423059F018F4413031F0089568
:10056000433039F0443039F00895605805C0605484
:1005700003C0605701C060530C9459010F931F933F
:10058000CF93DF93EC0189010E94AA02B801CE014A
:10059000DF91CF911F910F910C949802EF92FF92EF
:1005A0000F931F93CF93DF9300D000D01F92CDB74E
:1005B000DEB78C0179010E94AA024AE050E0BE0138
:1005C0006F5F7F4FC7010E94DF06BE016F5F7F4FE5
:1005D000C8010E9498020F900F900F900F900F90FB
:1005E000DF91CF911F910F91FF90EF9008950F939E
:1005F0001F93CF93DF9300D000D01F92CDB7DEB70B
:100600008C01CB014AE050E0BE016F5F7F4F0E943A
:10061000DF06BE016F5F7F4FC8010E9498020F90F6
:100620000F900F900F900F90DF91CF911F910F912E
:100630000895DC011296ED91FC9113973297808119
:1006400021E030E014960C9002C0220F331F0A9470
:10065000E2F782230895DC011296ED91FC91139745
:10066000408121E030E014960C9002C0220F331F2D
:100670000A94E2F7422740830895DC011296ED9137
:10068000FC911397429121E030E014960C9002C047
:10069000220F331F0A94E2F7422740830895DC01BA
:1006A0001296ED91FC91139714963C91208181E074
:1006B00090E0032E01C0880F0A94EAF7662319F030
:1006C000282B208308958095822380830895FC0140
:1006D00070E0928183812481E92FF82F61307105C8
:1006E00059F0329181E090E0022E01C0880F0A9407
:1006F000EAF78095832307C08291022E01C0660F1E
:100700000A94EAF7862B80830895FFCFFC0188E4E2
:1007100091E091838083628373834483368325834E
:100720002115310521F02130310569F00895FB01D3
:10073000229181E090E0042E01C0880F0A94EAF72C
:100740008095822308C0FB018291042E01C0220FF4
:100750000A94EAF7822B8083089528E431E0FC01B3
:100760003183208308950895EF92FF920F931F9392
:10077000CF93DF93EC01E62E8D859E85DC01ED9114
:10078000FC910084F185E02D61E009958B859C85C5
:10079000DC01ED91FC910190F081E02D61E0099583
:1007A0008FE39CE90197F1F700C0000000E010E042
:1007B000F12C8F859889DC01ED91FC910190F081FD
:1007C000E02D60E009958D859E859701002E02C081
:1007D000359527950A94E2F7DC01ED91FC910190A3
:1007E000F081E02D20FF02C061E001C060E00995CA
:1007F0008F859889DC01ED91FC910190F081E02DCD
:1008000061E009950F5F1F4F0830110591F6DF91E8
:10081000CF911F910F91FF90EF900895EF92FF926B
:100820000F931F93CF93DF93EC01E62E8F8598896A
:10083000DC01ED91FC910190F081E02D60E00995E3
:1008400000E010E0F12C8D859E859701002E02C0FE
:10085000359527950A94E2F7DC01ED91FC91019022
:10086000F081E02D20FF02C061E001C060E0099549
:100870008F859889DC01ED91FC910190F081E02D4C
:1008800061E009958F859889DC01ED91FC910190DB
:10089000F081E02D60E009950F5F1F4F08301105D2
:1008A00091F68B859C85DC01ED91FC910190F081A6
:1008B000E02D60E0DF91CF911F910F91FF90EF90BD
:1008C00009941F93CF93DF93EC01162F642F660FCB
:1008D00060680E94B403812F90E06AE070E00E949B
:1008E000CB066295607F682BCE01DF91CF911F917F
:1008F0000C940E04FC017487638756874587308B00
:10090000278747E050E060E00C946104AF92BF920B
:10091000CF92EF920F931F93CF93DF931F92CDB798
:10092000DEB75C01142F605D46E050E029830E9431
:10093000610443E050E02981622FC5010E946104F7
:1009400044E050E0612FC5010E94610442E050E0A4
:10095000602FC5010E94610441E050E06E2DC50189
:100960000E94610440E050E06C2DC5010F90DF91C2
:10097000CF911F910F91EF90CF90BF90AF900C94BB
:100980006104DF92EF92FF920F931F93CF93DF9357
:10099000EC018D859E85DC01ED91FC910084F18553
:1009A000E02D60E009958D859E85DC01ED91FC913F
:1009B0000190F081E02D60E009958F859889DC0138
:1009C000ED91FC910190F081E02D60E00995BFEF81
:1009D00020E782E0B15020408040E1F700C00000F5
:1009E00000E010E0D12CEE24E394F12C4B9B07C0E7
:1009F000C701002E01C0880F0A94EAF7D82A8F8514
:100A00009889DC01ED91FC910190F081E02D61E08D
:100A100009958F859889DC01ED91FC910190F08119
:100A2000E02D60E009950F5F1F4F08301105F1F6CA
:100A30008B859C85DC01ED91FC910190F081E02D8E
:100A400060E009958D2DDF91CF911F910F91FF905F
:100A5000EF90DF9008959B01207F332794E0369537
:100A600027959A95E1F7862F8F709AE0299F800D40
:100A700011240895CF93DF93EC01660F61680E9403
:100A8000B403CE010E94C104682F70E0CE01DF9153
:100A9000CF910C942B05CF93DF93EC0166E070E0CF
:100AA0000E943A0590E08053984F98878F8363E0C7
:100AB00070E0CE010E943A058B8364E070E0CE01C5
:100AC0000E943A058C8362E070E0CE010E943A05F4
:100AD0008A8361E070E0CE010E943A05898360E07C
:100AE00070E0CE010E943A058883DF91CF9108958E
:100AF000CB016AE070E00E94CB066295607F862B96
:100B00000895CF93DF93CDB7DEB7C554D1090FB6A3
:100B1000F894DEBF0FBECDBF6EE4CE018F5B9F4F5A
:100B20000E948400BE016F5B7F4FCE01CC960E9475
:100B3000F40021E030E044E065E270E0CE01C596CB
:100B40000E94860321E030E043E065E270E0CE01E0
:100B50008E960E94860321E030E042E065E270E07C
:100B6000CE0187960E94860321E030E042E06BE2EE
:100B700070E0CE0180960E94860321E030E043E0E1
:100B80006BE270E0CE0149960E94860321E030E0DE
:100B900044E06BE270E0CE0142960E9486039E0123
:100BA0002E5E3F4FAE01475E5F4FBE01605E7F4FDE
:100BB000CE0101960E947A04C12C8DE0E82E0EE051
:100BC0002BE049E161EE77E0CE0101960E948604B8
:100BD00060E0CE018B5B9F4F0E946A00CE018B5B71
:100BE0009F4F0E944C00CE01CC960E949302CE01F2
:100BF000CC960E94630160E071E0CE01CC960E9429
:100C000098022FEF8BE792E9215080409040E1F766
:100C100000C000008E01045C1F4FD02EC12EC80101
:100C20000E9463012CE031E041E064E0C8010E94D1
:100C3000BE02CE018B5B9F4F0E946F007C0142E0A1
:100C400067E0C8010E94AA02B701C8010E94F7022A
:100C50002FEF89E698E1215080409040E1F700C0F5
:100C60000000CE0101960E944B058D2D9C2D0E9407
:100C7000630126E131E041E062E08D2D9C2D0E9470
:100C8000BE0242E063E08D2D9C2D0E94AA02688581
:100C900079858D2D9C2D0E94F70263E271E08D2DE8
:100CA0009C2D0E9498026D816A3038F465E271E0F3
:100CB0008D2D9C2D0E9498026D8170E08D2D9C2DB4
:100CC0000E94F70263E271E0C8010E9498026C8101
:100CD0006A3030F465E271E0C8010E9498026C81CC
:100CE00070E0C8010E94F7022FEF83ED90E32150DE
:100CF00080409040E1F700C00000CE0101960E94C4
:100D00004B05C8010E94630127E231E041E062E047
:100D1000C8010E94BE0242E064E0C8010E94AA022B
:100D20006B816A3030F465E271E0C8010E9498027C
:100D30006B8170E0C8010E94F70264E371E0C801B2
:100D40000E9498026A816A3030F465E271E0C8015D
:100D50000E9498026A8170E0C8010E94F70264E371
:100D600071E0C8010E94980269816A3030F465E23E
:100D700071E0C8010E949802698170E0C8010E9478
:100D8000F7022FEF83ED90E3215080409040E1F790
:100D900000C0000044CFAA1BBB1B51E107C0AA1F23
:100DA000BB1FA617B70710F0A61BB70B881F991F0C
:100DB0005A95A9F780959095BC01CD010895FB0146
:100DC0009F01E8944230C4F04532B4F44A3029F42B
:100DD00097FB1EF4909581959F4F642F77270E9473
:100DE000CB06805D8A330CF0895D8193CB0100973F
:100DF000A1F716F45DE251931082C9010C9400072B
:100E0000DC01FC01672F71917723E1F7329704C071
:100E10007C916D9370836291AE17BF07C8F30895FC
:040E2000F894FFCF74
:100E240074657374696E6720414443004144432DE3
:100E340056616C75650063757272656E74206461C9
:100E44007465002F00300063757272656E742074CF
:100E5400696D65003A000000000085038503850381
:100E640085038503000000004F0319032B033D0392
:020E7400670312
:00000001FF
